:100000006F005011130000001300000013000000E7
:100010001300000013000000130000001300000094
:100020001300000013000000130000001300000084
:08003000130000007300100032
:100038000000000000000000A0010000A401000072
:1000480000000000AC0800000000000000000000F4
:10005800AE080000B008000000000000000000002A
:10006800B208000000000000B40800000000000012
:10007800B6080000B8080000BA080000BC08000074
:10008800BE080000C0080000C2080000C408000044
:10009800C6080000C8080000CA080000CC08000014
:1000A800CE080000D0080000D2080000D4080000E4
:1000B800D6080000D8080000DA080000DC080000B4
:1000C800DE080000E0080000E2080000E408000084
:1000D800E6080000E8080000EA080000EC08000054
:1000E800EE080000F0080000F2080000F408000024
:1000F800F6080000F8080000FA080000FC080000F4
:10010800FE080000000900000209000004090000C0
:1001180006090000080900000A0900000C0900008F
:100128000E0900001009000012090000000000007C
:080138000000000000000000BF
:10014000397101436EC619A0397141536AC866CA34
:1001500062CC5ECE19A0397101535AD056D252D416
:100160004ED64AD826DA22DC06DE3301614082828E
:1001700041114AC026C222C406C68282B24D410144
:10018000024D924C224CB24B4101024B924A224A00
:10019000B2494101024992442244B2404101828065
:1001A0007300203001A0B71701409387074005472F
:1001B00098CB29C5010001000100010001000100E8
:1001C0000100010001000100010001000100010027
:1001D0000100010001000100010001000100010017
:1001E0000100010001000100010001000100010007
:1001F0000100010001000100D8CB82800100010054
:1002000001000100010001000100010001000100E6
:100210000100010001000100D8CB01000100010034
:1002200001000100010001000100010001000100C6
:1002300001000100010001000100010001000100B6
:1002400001008280EFF23FF14111AA8932891D44F9
:10025000FD5433D5854005892EC67D14A937B24596
:10026000E31994FE1D44FD5433D5894005897D145E
:100270001D3FE31B94FE1D44FD5433558940058901
:100280007D141537E31B94FE410101B7EFF25FEED9
:100290001384C1819304A40230200C3008200D0483
:1002A0005537E31B94FE0545EF005015E5B58D4726
:1002B0003305F5029387C1813E950CA110B134A19D
:1002C0008280BD4763D0A702FD4763D2A702130710
:1002D000F00381476346A700B717014093870740A3
:1002E0003E858280B717014093870780D5BFB71737
:1002F0000140938707C0EDB7BD4763DFA7007D4787
:10030000A1476359A7001307F00381476344A7007F
:10031000930700023E8582809147EDBFEFF25FE5D3
:10032000411185451545EF003009370530008545F9
:1003300013050540EF00C078371401409967114953
:100340008D444C00130504807C824AC626C42313C6
:100350000100EF008064A1474C00130504807C82FB
:100360004AC626C4EF00606341012DB5EFF25FE09D
:10037000930735FF93F7F70F054741112A84AE84A1
:100380006363F700613F2285853F8545EF00D0021A
:100390009377F4000547B317F7007C82231301001D
:1003A000C147638EE40095C489476388F4008D4794
:1003B0006391F4029307800219A0930780043EC65C
:1003C00022858D473EC4F53D4C00EF00005D4101A4
:1003D000D1B39147EDB7EFF2BFD941112EC62A84B0
:1003E000CD353D888547B397870032469395070101
:1003F000C181EF00406B410171BBEFF27FD72A84CE
:10040000C9353D888545B3958500C205C181EF009A
:10041000E06749B3EFF2DFD5411185450545EF00AF
:10042000A079854513050002EF0000798545216517
:10043000EF00006985477C8237150140C1473EC601
:100440004C008D47130505403EC423130100B12322
:10045000410189B31345F5FF1375F50F9307400567
:1004600063E1A702931725000D47B307F540330555
:10047000E502FD1793F7F70FC2071375F50F5D8DB2
:1004800082809307900A63E1A7021305B5FA1375FA
:10049000F50F8D47B307F50213172500198D7D154C
:1004A00093F7F70FA207D1BF130565051375F50F75
:1004B000931725000D47B307F5403305E502FD17F7
:1004C00093F7F70FA2071375F50F42054DBFEFF233
:1004D0003FCA2E8481452A89513D8545228579353B
:1004E0000545EF00A07181452285F5350545EF00F2
:1004F000E0704A8519378545B334A0002285E13D77
:100500000545EF00A06F4A85CD3D11E18504054505
:10051000EF00C06E228581457D3D22858145B9353C
:1005200026858DB9EFF23FC3894519458135894547
:100530001D452D3D0144B9491945C13501C51D452C
:100540006D3D11E199B129041374F40FA28401499E
:100550002685093713568500935505019376F50FC7
:100560001376F60F4A8593F5F50FA9040509813333
:1005700093F4F40FE31E39FD113B13051002EF0055
:10058000E0675DBFEFF2DFBEB70400200144938453
:1005900004005149B3878400882385450504F93355
:1005A000E31A24FFC5BEEFF2BFBCB704002001442C
:1005B000938404005149B38784008823814505044E
:1005C0007533E31A24FFF9B6EFF29FBAB70400209F
:1005D000553F0144938404005149B3878400882324
:1005E00081450504CD3BE31A24FF6DB6EFF25FB8F9
:1005F00001449144228581461306A00581450504E6
:100600007D31E31994FE59311305401FC52B59B6AE
:10061000EFF27FB441113684AA842E89B2898146D3
:1006200001469305A005014542C246C03AC63EC4F4
:10063000BD39CE864A86A68505459539A2473247FB
:10064000A285BE863A8609459D3182481248834676
:1006500001034686C2850D4599390D391305401FA2
:10066000712B41011DB6EFF2BFB009459923A523B7
:1006700055330DB6EFF25FAD4111F53701445D35ED
:10068000B944228581460146814505040D31E31AAE
:1006900094FEED3E1305401F9523B7090020130972
:1006A000A005370A0020930AA005370B0020854BD0
:1006B00093048B02CD3D138C0401014488208D45A9
:1006C000753188201D3B6310750302C081481308F3
:1006D000A005814701479306A00501468145130502
:1006E000A0053D3705048820814585044131E31785
:1006F0009CFC5DFC93844901138C3401882089455E
:10070000B5318820DD3911ED56C081480148814757
:1007100001479306A005014681451305A005CD3D7F
:1007200005048820814585049131E3199CFC49F03A
:1007300095450D45693B09E9DD451945493B05C529
:100740004AC08148014829A002C081481308A00579
:10075000814701479306A0050146930580021305D2
:1007600020037D35B1B7D9450945953319C502C078
:100770009308800213082003E1BFC5454145813B32
:1007800011C902C081481308A0059307A0050147BD
:100790008146D9B7B945253B09C54AC081480148BA
:1007A000EDB7B5450545253319C502C0930880024C
:1007B00013082003D9BF93048A03138C74002935CE
:1007C00088208945653688200D3909ED4AC0814861
:1007D00001489307A005014781461306A0058145FE
:1007E00005043D358504E39C84FDE31304ECE93BFB
:1007F00089450D45A53E894515458D3EC53B75B5D9
:10080000B71702409843B706FFF81367170098C35D
:10081000D843758FD8C39843B706F7FEFD16758F7A
:1008200098C39843B706FCFFFD16758F98C3D8434D
:10083000B70681FFFD16758FD8C337079F0098C78D
:10084000B746024003A706801367070123A0E6808E
:10085000D843B706C1FFFD16D8C3D843D8C3D84381
:1008600013670740D8C3D843758FD8C3D843B7069A
:100870001000558FD8C39843B7060001558F98C311
:10088000984393166700E3DD06FED843B71602408F
:10089000719BD8C3D84313672700D8C32147DC42D4
:1008A000B18BE39EE7FE828001A001A001A001A020
:1008B00001A001A001A001A001A001A001A001A030
:1008C00001A001A001A001A001A001A001A001A020
:1008D00001A001A001A001A001A001A001A001A010
:1008E00001A001A001A001A001A001A001A001A000
:1008F00001A001A001A001A001A001A001A001A0F0
:1009000001A001A001A001A001A001A001A001A0DF
:1009100001A001A097010020938141F2172100203E
:10092000130141EE170500001305053197F5FF1F70
:100930009385456D1386018163FAC5008322050006
:1009400023A0550011059105E3EAC5FE1385018139
:10095000938581846377B500232005001105E36D3D
:10096000B5FEFD42739002BC8D42739042809302AB
:10097000800873A0023097F2FFFF9382226C93E20B
:10098000320073905230EFF0BFE79702000093827D
:10099000A2CE73901234730020309C4513F70701E8
:1009A00013F8F70001C7D8413368E8003727024041
:1009B000145B3707000F758F4DEB85462388D18078
:1009C000371701406315E5009A2135839AA18E21DE
:1009D00013F7F50F39C318418146854E3D4F930FEC
:1009E000800293028004214E3396DE00B3F8C500E6
:1009F000631116039398260033131F011343F3FF6B
:100A00003377E300B318180133E7E8006397F7077B
:100A100050C98506E39AC6FD18C11307F00F637528
:100A2000B70454412146854E3D4F930F80029302F7
:100A30008004414EB398CE0033F715016392E8026B
:100A40001317260001173313EF001343F3FFB37698
:100A5000D3003317E800D98E6395F703232A1501D5
:100A60000506E319C6FD54C1828037170140E31023
:100A7000E5F603C7018121DF81BFE39C57F810C968
:100A800049BFE39F57FC23281501D9BFB717014081
:100A90006316F50083C7018191C3B58108456D8D4B
:100AA0003335A0008280B71701406316F50083C775
:100AB000018191C3B58119C20CC982804CC9828061
:100AC000B7070140635A0504DC4F9356050113181C
:100AD00005013707300013F6F60013580801B37606
:100AE000E500635E05066399E604930606010D467C
:100AF000B316D60093C6F6FFF58F99C91357550163
:100B00001377F73F12073317E800D98F63550506AF
:100B1000370701405CCF828037270240145BDC43FB
:100B20003707000F758F55F313D71700F976CE07E7
:100B3000758FCD83D98F51BF1317B500635607004A
:100B40008D46B396C6007DB7135755011377F73F0F
:100B500012073317E8001347F7FFF98F79BF639047
:100B6000E602370601405442370700F17D17F98F3E
:100B7000758F58C2C1F5370701405CC382801317D7
:100B8000B500635C07008D46B396C60093C6F6FFBA
:100B9000FD8EB707000FD58FF1BF13575501120710
:100BA0003317E8001347F7FF7D8FB707000FD98F82
:100BB000D1B723AAA180828099C5371702401C4F64
:100BC0005D8D08CF8280B7170240984F1345F5FF1F
:100BD000798D88CF828083A7818037177A001307A9
:100BE0000720B3D7E70293F7F70F238DF1801307A0
:100BF000803EB387E702239CF1808280B7F700E054
:100C0000D8438146799BD8C303D781813306A70295
:100C100090CBD4CB98431367070198C398431367CD
:100C2000170298C3D843058B75DF9843799B98C307
:040C300082800000BE
:100C34000305060702161700011011041514130FFB
:100C440009310E0D030500160217060110110415D3
:100C540014130F09310E0D000305070001101104D0
:100C64001514130F09310E0D041514130F09310057
:080C7400006CDC02000000002E
:00000001FF
